{
  "abi": [
    {
      "inputs": [
        {
          "internalType": "address",
          "name": "_owner",
          "type": "address"
        },
        {
          "internalType": "uint256",
          "name": "_endtime",
          "type": "uint256"
        }
      ],
      "stateMutability": "nonpayable",
      "type": "constructor"
    },
    {
      "inputs": [
        {
          "internalType": "address",
          "name": "",
          "type": "address"
        }
      ],
      "name": "balanceOf",
      "outputs": [
        {
          "internalType": "uint256",
          "name": "",
          "type": "uint256"
        }
      ],
      "stateMutability": "view",
      "type": "function"
    },
    {
      "inputs": [],
      "name": "endtime",
      "outputs": [
        {
          "internalType": "uint256",
          "name": "",
          "type": "uint256"
        }
      ],
      "stateMutability": "view",
      "type": "function"
    },
    {
      "inputs": [
        {
          "internalType": "uint256",
          "name": "_amount",
          "type": "uint256"
        }
      ],
      "name": "funding",
      "outputs": [],
      "stateMutability": "payable",
      "type": "function"
    },
    {
      "inputs": [],
      "name": "owner",
      "outputs": [
        {
          "internalType": "address",
          "name": "",
          "type": "address"
        }
      ],
      "stateMutability": "view",
      "type": "function"
    },
    {
      "inputs": [
        {
          "internalType": "uint256",
          "name": "_amount",
          "type": "uint256"
        }
      ],
      "name": "withdraw",
      "outputs": [],
      "stateMutability": "nonpayable",
      "type": "function"
    }
  ],
  "bytecode": {
    "object": "0x608060405234801561001057600080fd5b506040516103c53803806103c583398101604081905261002f91610058565b600080546001600160a01b0319166001600160a01b039390931692909217909155600155610092565b6000806040838503121561006b57600080fd5b82516001600160a01b038116811461008257600080fd5b6020939093015192949293505050565b610324806100a16000396000f3fe60806040526004361061004a5760003560e01c80632ca126f81461004f5780632e1a7d4d1461007857806370a082311461009a5780638da5cb5b146100c757806392ca60c1146100ff575b600080fd5b34801561005b57600080fd5b5061006560015481565b6040519081526020015b60405180910390f35b34801561008457600080fd5b5061009861009336600461027e565b610112565b005b3480156100a657600080fd5b506100656100b5366004610297565b60026020526000908152604090205481565b3480156100d357600080fd5b506000546100e7906001600160a01b031681565b6040516001600160a01b03909116815260200161006f565b61009861010d36600461027e565b6101dc565b6000546001600160a01b0316331461015d5760405162461bcd60e51b81526020600482015260096024820152682737ba1037bbb732b960b91b60448201526064015b60405180910390fd5b60015442101561019f5760405162461bcd60e51b815260206004820152600d60248201526c4e6f74206f7665722074696d6560981b6044820152606401610154565b600080546040516001600160a01b039091169183156108fc02918491818181858888f193505050501580156101d8573d6000803e3d6000fd5b5050565b80341461021a5760405162461bcd60e51b815260206004820152600c60248201526b15dc9bdb99c8185b5bdd5b9d60a21b6044820152606401610154565b60015442106102575760405162461bcd60e51b81526020600482015260096024820152684f7665722074696d6560b81b6044820152606401610154565b33600090815260026020526040812080548392906102769084906102c7565b909155505050565b60006020828403121561029057600080fd5b5035919050565b6000602082840312156102a957600080fd5b81356001600160a01b03811681146102c057600080fd5b9392505050565b808201808211156102e857634e487b7160e01b600052601160045260246000fd5b9291505056fea2646970667358221220b13ce61a9bea22698df80cedbe59530b5da0d4ec36f90cf93f072e54f27b4ed664736f6c63430008140033",
    "linkReferences": {}
  },
  "methodIdentifiers": {
    "balanceOf(address)": "70a08231",
    "endtime()": "2ca126f8",
    "funding(uint256)": "92ca60c1",
    "owner()": "8da5cb5b",
    "withdraw(uint256)": "2e1a7d4d"
  },
  "id": 17
}