{
  "abi": [
    {
      "inputs": [
        {
          "internalType": "uint8",
          "name": "_type",
          "type": "uint8"
        },
        {
          "internalType": "string",
          "name": "_content",
          "type": "string"
        },
        {
          "internalType": "uint256",
          "name": "_endtime",
          "type": "uint256"
        },
        {
          "internalType": "uint80",
          "name": "_roundId",
          "type": "uint80"
        }
      ],
      "name": "addNewFeed",
      "outputs": [],
      "stateMutability": "nonpayable",
      "type": "function"
    },
    {
      "inputs": [],
      "name": "count",
      "outputs": [
        {
          "internalType": "uint256",
          "name": "",
          "type": "uint256"
        }
      ],
      "stateMutability": "view",
      "type": "function"
    },
    {
      "inputs": [
        {
          "internalType": "string",
          "name": "_name",
          "type": "string"
        },
        {
          "internalType": "string",
          "name": "_symbol",
          "type": "string"
        },
        {
          "internalType": "string",
          "name": "_uri",
          "type": "string"
        },
        {
          "internalType": "uint256",
          "name": "_price",
          "type": "uint256"
        }
      ],
      "name": "createModule",
      "outputs": [],
      "stateMutability": "nonpayable",
      "type": "function"
    },
    {
      "inputs": [
        {
          "internalType": "uint256",
          "name": "",
          "type": "uint256"
        }
      ],
      "name": "feeds",
      "outputs": [
        {
          "internalType": "uint8",
          "name": "feedType",
          "type": "uint8"
        },
        {
          "internalType": "string",
          "name": "content",
          "type": "string"
        },
        {
          "internalType": "address",
          "name": "feedContract",
          "type": "address"
        },
        {
          "internalType": "uint256",
          "name": "createdTime",
          "type": "uint256"
        },
        {
          "internalType": "uint80",
          "name": "roundId",
          "type": "uint80"
        }
      ],
      "stateMutability": "view",
      "type": "function"
    },
    {
      "inputs": [],
      "name": "getModules",
      "outputs": [
        {
          "internalType": "address[]",
          "name": "",
          "type": "address[]"
        }
      ],
      "stateMutability": "view",
      "type": "function"
    },
    {
      "inputs": [
        {
          "internalType": "uint256",
          "name": "",
          "type": "uint256"
        }
      ],
      "name": "modules",
      "outputs": [
        {
          "internalType": "address",
          "name": "",
          "type": "address"
        }
      ],
      "stateMutability": "view",
      "type": "function"
    }
  ],
  "bytecode": {
    "object": "0x608060405234801561001057600080fd5b50612bbd806100206000396000f3fe60806040523480156200001157600080fd5b50600436106200006a5760003560e01c806306661abd146200006f57806330d9265a146200008c5780634a5479f314620000a557806381b2248a14620000cf578063b07cb02e14620000ff578063b2494df31462000116575b600080fd5b6200007960005481565b6040519081526020015b60405180910390f35b620000a36200009d36600462000576565b6200012f565b005b620000bc620000b6366004620005fa565b6200029f565b604051620000839594939291906200065c565b620000e6620000e0366004620005fa565b62000378565b6040516001600160a01b03909116815260200162000083565b620000a362000110366004620006a9565b620003a3565b620001206200043d565b60405162000083919062000743565b600060ff8516620001855733836040516200014a90620004a1565b6001600160a01b0390921682526020820152604001604051809103906000f0801580156200017c573d6000803e3d6000fd5b509050620001b3565b60001960ff861601620001a25733836040516200014a90620004af565b60011960ff8616016200006a575060005b6040805160a08101825260ff878116825260208083018881526001600160a01b038616848601524260608501526001600160501b0387166080850152600080548152600192839052949094208351815460ff191693169290921782559251919283929082019062000225908262000821565b5060408201516002820180546001600160a01b0319166001600160a01b03909216919091179055606082015160038201556080909101516004909101805469ffffffffffffffffffff19166001600160501b039092169190911790556000805490806200029283620008ee565b9190505550505050505050565b60016020819052600091825260409091208054918101805460ff90931692620002c89062000792565b80601f0160208091040260200160405190810160405280929190818152602001828054620002f69062000792565b8015620003475780601f106200031b5761010080835404028352916020019162000347565b820191906000526020600020905b8154815290600101906020018083116200032957829003601f168201915b505050506002830154600384015460049094015492936001600160a01b03909116929091506001600160501b031685565b600281815481106200038957600080fd5b6000918252602090912001546001600160a01b0316905081565b60003385858585604051620003b890620004bd565b620003c895949392919062000916565b604051809103906000f080158015620003e5573d6000803e3d6000fd5b50600280546001810182556000919091527f405787fa12a823e0f2b7631cc41b3ba8828b3321ca811111fa75cd3aa3bb5ace0180546001600160a01b0319166001600160a01b03929092169190911790555050505050565b606060028054806020026020016040519081016040528092919081815260200182805480156200049757602002820191906000526020600020905b81546001600160a01b0316815260019091019060200180831162000478575b5050505050905090565b610384806200097a83390190565b6103c58062000cfe83390190565b611ac580620010c383390190565b634e487b7160e01b600052604160045260246000fd5b600082601f830112620004f357600080fd5b813567ffffffffffffffff80821115620005115762000511620004cb565b604051601f8301601f19908116603f011681019082821181831017156200053c576200053c620004cb565b816040528381528660208588010111156200055657600080fd5b836020870160208301376000602085830101528094505050505092915050565b600080600080608085870312156200058d57600080fd5b843560ff811681146200059f57600080fd5b9350602085013567ffffffffffffffff811115620005bc57600080fd5b620005ca87828801620004e1565b9350506040850135915060608501356001600160501b0381168114620005ef57600080fd5b939692955090935050565b6000602082840312156200060d57600080fd5b5035919050565b6000815180845260005b818110156200063c576020818501810151868301820152016200061e565b506000602082860101526020601f19601f83011685010191505092915050565b60ff8616815260a0602082015260006200067a60a083018762000614565b6001600160a01b039590951660408301525060608101929092526001600160501b031660809091015292915050565b60008060008060808587031215620006c057600080fd5b843567ffffffffffffffff80821115620006d957600080fd5b620006e788838901620004e1565b95506020870135915080821115620006fe57600080fd5b6200070c88838901620004e1565b945060408701359150808211156200072357600080fd5b506200073287828801620004e1565b949793965093946060013593505050565b6020808252825182820181905260009190848201906040850190845b81811015620007865783516001600160a01b0316835292840192918401916001016200075f565b50909695505050505050565b600181811c90821680620007a757607f821691505b602082108103620007c857634e487b7160e01b600052602260045260246000fd5b50919050565b601f8211156200081c57600081815260208120601f850160051c81016020861015620007f75750805b601f850160051c820191505b81811015620008185782815560010162000803565b5050505b505050565b815167ffffffffffffffff8111156200083e576200083e620004cb565b62000856816200084f845462000792565b84620007ce565b602080601f8311600181146200088e5760008415620008755750858301515b600019600386901b1c1916600185901b17855562000818565b600085815260208120601f198616915b82811015620008bf578886015182559484019460019091019084016200089e565b5085821015620008de5787850151600019600388901b60f8161c191681555b5050505050600190811b01905550565b6000600182016200090f57634e487b7160e01b600052601160045260246000fd5b5060010190565b6001600160a01b038616815260a0602082018190526000906200093c9083018762000614565b828103604084015262000950818762000614565b9050828103606084015262000966818662000614565b915050826080830152969550505050505056fe608060405234801561001057600080fd5b5060405161038438038061038483398101604081905261002f91610058565b600080546001600160a01b0319166001600160a01b039390931692909217909155600155610092565b6000806040838503121561006b57600080fd5b82516001600160a01b038116811461008257600080fd5b6020939093015192949293505050565b6102e3806100a16000396000f3fe608060405234801561001057600080fd5b50600436106100625760003560e01c80630121b93f146100675780632ca126f81461007c5780638da5cb5b14610098578063a3ec138d146100c3578063bd6d605c146100f6578063e2a75f3614610109575b600080fd5b61007a610075366004610242565b610129565b005b61008560015481565b6040519081526020015b60405180910390f35b6000546100ab906001600160a01b031681565b6040516001600160a01b03909116815260200161008f565b6100e66100d136600461025b565b60026020526000908152604090205460ff1681565b604051901515815260200161008f565b6100ab61010436600461028b565b61020a565b610085610117366004610242565b60009081526003602052604090205490565b600154421061016b5760405162461bcd60e51b81526020600482015260096024820152684f7665722074696d6560b81b60448201526064015b60405180910390fd5b3360009081526002602052604090205460ff16156101bf5760405162461bcd60e51b8152602060048201526011602482015270165bdd48185b1c9958591e481d9bdd1959607a1b6044820152606401610162565b60009081526003602090815260408083208054600181810183559185528385200180546001600160a01b0319163390811790915584526002909252909120805460ff19169091179055565b6003602052816000526040600020818154811061022657600080fd5b6000918252602090912001546001600160a01b03169150829050565b60006020828403121561025457600080fd5b5035919050565b60006020828403121561026d57600080fd5b81356001600160a01b038116811461028457600080fd5b9392505050565b6000806040838503121561029e57600080fd5b5050803592602090910135915056fea264697066735822122051a562663a6e772fab377bd24af6212c8b85a6cb68be74fff40d3dea2c3706e864736f6c63430008140033608060405234801561001057600080fd5b506040516103c53803806103c583398101604081905261002f91610058565b600080546001600160a01b0319166001600160a01b039390931692909217909155600155610092565b6000806040838503121561006b57600080fd5b82516001600160a01b038116811461008257600080fd5b6020939093015192949293505050565b610324806100a16000396000f3fe60806040526004361061004a5760003560e01c80632ca126f81461004f5780632e1a7d4d1461007857806370a082311461009a5780638da5cb5b146100c757806392ca60c1146100ff575b600080fd5b34801561005b57600080fd5b5061006560015481565b6040519081526020015b60405180910390f35b34801561008457600080fd5b5061009861009336600461027e565b610112565b005b3480156100a657600080fd5b506100656100b5366004610297565b60026020526000908152604090205481565b3480156100d357600080fd5b506000546100e7906001600160a01b031681565b6040516001600160a01b03909116815260200161006f565b61009861010d36600461027e565b6101dc565b6000546001600160a01b0316331461015d5760405162461bcd60e51b81526020600482015260096024820152682737ba1037bbb732b960b91b60448201526064015b60405180910390fd5b60015442101561019f5760405162461bcd60e51b815260206004820152600d60248201526c4e6f74206f7665722074696d6560981b6044820152606401610154565b600080546040516001600160a01b039091169183156108fc02918491818181858888f193505050501580156101d8573d6000803e3d6000fd5b5050565b80341461021a5760405162461bcd60e51b815260206004820152600c60248201526b15dc9bdb99c8185b5bdd5b9d60a21b6044820152606401610154565b60015442106102575760405162461bcd60e51b81526020600482015260096024820152684f7665722074696d6560b81b6044820152606401610154565b33600090815260026020526040812080548392906102769084906102c7565b909155505050565b60006020828403121561029057600080fd5b5035919050565b6000602082840312156102a957600080fd5b81356001600160a01b03811681146102c057600080fd5b9392505050565b808201808211156102e857634e487b7160e01b600052601160045260246000fd5b9291505056fea2646970667358221220b13ce61a9bea22698df80cedbe59530b5da0d4ec36f90cf93f072e54f27b4ed664736f6c6343000814003360806040523480156200001157600080fd5b5060405162001ac538038062001ac58339810160408190526200003491620001c6565b848484600062000045838262000311565b50600162000054828262000311565b5050506001600160a01b0381166200008657604051631e4fbdf760e01b81526000600482015260240160405180910390fd5b6200009181620000af565b506009620000a0838262000311565b50600a5550620003dd92505050565b600780546001600160a01b038381166001600160a01b0319831681179093556040519116919082907f8be0079c531659141344cd1fd0a4f28419497f9722a3daafe3b4186f6b6457e090600090a35050565b634e487b7160e01b600052604160045260246000fd5b600082601f8301126200012957600080fd5b81516001600160401b038082111562000146576200014662000101565b604051601f8301601f19908116603f0116810190828211818310171562000171576200017162000101565b816040528381526020925086838588010111156200018e57600080fd5b600091505b83821015620001b2578582018301518183018401529082019062000193565b600093810190920192909252949350505050565b600080600080600060a08688031215620001df57600080fd5b85516001600160a01b0381168114620001f757600080fd5b60208701519095506001600160401b03808211156200021557600080fd5b6200022389838a0162000117565b955060408801519150808211156200023a57600080fd5b6200024889838a0162000117565b945060608801519150808211156200025f57600080fd5b506200026e8882890162000117565b925050608086015190509295509295909350565b600181811c908216806200029757607f821691505b602082108103620002b857634e487b7160e01b600052602260045260246000fd5b50919050565b601f8211156200030c57600081815260208120601f850160051c81016020861015620002e75750805b601f850160051c820191505b818110156200030857828155600101620002f3565b5050505b505050565b81516001600160401b038111156200032d576200032d62000101565b62000345816200033e845462000282565b84620002be565b602080601f8311600181146200037d5760008415620003645750858301515b600019600386901b1c1916600185901b17855562000308565b600085815260208120601f198616915b82811015620003ae578886015182559484019460019091019084016200038d565b5085821015620003cd5787850151600019600388901b60f8161c191681555b5050505050600190811b01905550565b6116d880620003ed6000396000f3fe60806040526004361061011f5760003560e01c80638da5cb5b116100a0578063b88d4fde11610064578063b88d4fde14610314578063c87b56dd14610334578063e985e9c514610354578063eac989f814610374578063f2fde38b1461038957600080fd5b80638da5cb5b1461029857806395d89b41146102b6578063a035b1fe146102cb578063a1448194146102e1578063a22cb465146102f457600080fd5b80632e1a7d4d116100e75780632e1a7d4d146101f557806342842e0e146102155780636352211e1461023557806370a0823114610255578063715018a61461028357600080fd5b806301ffc9a71461012457806306fdde0314610159578063081812fc1461017b578063095ea7b3146101b357806323b872dd146101d5575b600080fd5b34801561013057600080fd5b5061014461013f366004611213565b6103a9565b60405190151581526020015b60405180910390f35b34801561016557600080fd5b5061016e6103ba565b6040516101509190611280565b34801561018757600080fd5b5061019b610196366004611293565b61044c565b6040516001600160a01b039091168152602001610150565b3480156101bf57600080fd5b506101d36101ce3660046112c8565b610475565b005b3480156101e157600080fd5b506101d36101f03660046112f2565b610484565b34801561020157600080fd5b506101d3610210366004611293565b610514565b34801561022157600080fd5b506101d36102303660046112f2565b610556565b34801561024157600080fd5b5061019b610250366004611293565b610576565b34801561026157600080fd5b5061027561027036600461132e565b610581565b604051908152602001610150565b34801561028f57600080fd5b506101d36105c9565b3480156102a457600080fd5b506007546001600160a01b031661019b565b3480156102c257600080fd5b5061016e6105dd565b3480156102d757600080fd5b50610275600a5481565b6101d36102ef3660046112c8565b6105ec565b34801561030057600080fd5b506101d361030f366004611349565b610737565b34801561032057600080fd5b506101d361032f36600461139b565b610742565b34801561034057600080fd5b5061016e61034f366004611293565b610759565b34801561036057600080fd5b5061014461036f366004611477565b610764565b34801561038057600080fd5b5061016e610792565b34801561039557600080fd5b506101d36103a436600461132e565b610820565b60006103b48261085e565b92915050565b6060600080546103c9906114aa565b80601f01602080910402602001604051908101604052809291908181526020018280546103f5906114aa565b80156104425780601f1061041757610100808354040283529160200191610442565b820191906000526020600020905b81548152906001019060200180831161042557829003601f168201915b5050505050905090565b600061045782610883565b506000828152600460205260409020546001600160a01b03166103b4565b6104808282336108bc565b5050565b6001600160a01b0382166104b357604051633250574960e11b8152600060048201526024015b60405180910390fd5b60006104c08383336108c9565b9050836001600160a01b0316816001600160a01b03161461050e576040516364283d7b60e01b81526001600160a01b03808616600483015260248201849052821660448201526064016104aa565b50505050565b61051c6109c2565b6007546040516001600160a01b039091169082156108fc029083906000818181858888f19350505050158015610480573d6000803e3d6000fd5b61057183838360405180602001604052806000815250610742565b505050565b60006103b482610883565b60006001600160a01b0382166105ad576040516322718ad960e21b8152600060048201526024016104aa565b506001600160a01b031660009081526003602052604090205490565b6105d16109c2565b6105db60006109ef565b565b6060600180546103c9906114aa565b8034146106315760405162461bcd60e51b81526020600482015260136024820152720acc2d8eacae640c8de40dcdee840dac2e8c6d606b1b60448201526064016104aa565b600a5481146106825760405162461bcd60e51b815260206004820152601960248201527f56616c75657320646f206e6f74206d617463682070726963650000000000000060448201526064016104aa565b6008805460009182610693836114e4565b9190505590506106a38382610a41565b61057181600980546106b4906114aa565b80601f01602080910402602001604051908101604052809291908181526020018280546106e0906114aa565b801561072d5780601f106107025761010080835404028352916020019161072d565b820191906000526020600020905b81548152906001019060200180831161071057829003601f168201915b5050505050610a5b565b610480338383610aab565b61074d848484610484565b61050e84848484610b4a565b60606103b482610c73565b6001600160a01b03918216600090815260056020908152604080832093909416825291909152205460ff1690565b6009805461079f906114aa565b80601f01602080910402602001604051908101604052809291908181526020018280546107cb906114aa565b80156108185780601f106107ed57610100808354040283529160200191610818565b820191906000526020600020905b8154815290600101906020018083116107fb57829003601f168201915b505050505081565b6108286109c2565b6001600160a01b03811661085257604051631e4fbdf760e01b8152600060048201526024016104aa565b61085b816109ef565b50565b60006001600160e01b03198216632483248360e11b14806103b457506103b482610d84565b6000818152600260205260408120546001600160a01b0316806103b457604051637e27328960e01b8152600481018490526024016104aa565b6105718383836001610dd4565b6000828152600260205260408120546001600160a01b03908116908316156108f6576108f6818486610eda565b6001600160a01b0381161561093457610913600085600080610dd4565b6001600160a01b038116600090815260036020526040902080546000190190555b6001600160a01b03851615610963576001600160a01b0385166000908152600360205260409020805460010190555b60008481526002602052604080822080546001600160a01b0319166001600160a01b0389811691821790925591518793918516917fddf252ad1be2c89b69c2b068fc378daa952ba7f163c4a11628f55a4df523b3ef91a4949350505050565b6007546001600160a01b031633146105db5760405163118cdaa760e01b81523360048201526024016104aa565b600780546001600160a01b038381166001600160a01b0319831681179093556040519116919082907f8be0079c531659141344cd1fd0a4f28419497f9722a3daafe3b4186f6b6457e090600090a35050565b610480828260405180602001604052806000815250610f3e565b6000828152600660205260409020610a738282611559565b506040518281527ff8e1a15aba9398e019f0b49df1a4fde98ee17ae345cb5f6b5e2c27f5033e8ce79060200160405180910390a15050565b6001600160a01b038216610add57604051630b61174360e31b81526001600160a01b03831660048201526024016104aa565b6001600160a01b03838116600081815260056020908152604080832094871680845294825291829020805460ff191686151590811790915591519182527f17307eab39ab6107e8899845ad3d59bd9653f200f220920489ca2b5937696c31910160405180910390a3505050565b6001600160a01b0383163b1561050e57604051630a85bd0160e11b81526001600160a01b0384169063150b7a0290610b8c903390889087908790600401611619565b6020604051808303816000875af1925050508015610bc7575060408051601f3d908101601f19168201909252610bc491810190611656565b60015b610c30573d808015610bf5576040519150601f19603f3d011682016040523d82523d6000602084013e610bfa565b606091505b508051600003610c2857604051633250574960e11b81526001600160a01b03851660048201526024016104aa565b805181602001fd5b6001600160e01b03198116630a85bd0160e11b14610c6c57604051633250574960e11b81526001600160a01b03851660048201526024016104aa565b5050505050565b6060610c7e82610883565b5060008281526006602052604081208054610c98906114aa565b80601f0160208091040260200160405190810160405280929190818152602001828054610cc4906114aa565b8015610d115780601f10610ce657610100808354040283529160200191610d11565b820191906000526020600020905b815481529060010190602001808311610cf457829003601f168201915b505050505090506000610d2f60408051602081019091526000815290565b90508051600003610d41575092915050565b815115610d73578082604051602001610d5b929190611673565b60405160208183030381529060405292505050919050565b610d7c84610f55565b949350505050565b60006001600160e01b031982166380ac58cd60e01b1480610db557506001600160e01b03198216635b5e139f60e01b145b806103b457506301ffc9a760e01b6001600160e01b03198316146103b4565b8080610de857506001600160a01b03821615155b15610eaa576000610df884610883565b90506001600160a01b03831615801590610e245750826001600160a01b0316816001600160a01b031614155b8015610e375750610e358184610764565b155b15610e605760405163a9fbf51f60e01b81526001600160a01b03841660048201526024016104aa565b8115610ea85783856001600160a01b0316826001600160a01b03167f8c5be1e5ebec7d5bd14f71427d1e84f3dd0314c0f7b2291e5b200ac8c7c3b92560405160405180910390a45b505b5050600090815260046020526040902080546001600160a01b0319166001600160a01b0392909216919091179055565b610ee5838383610fca565b610571576001600160a01b038316610f1357604051637e27328960e01b8152600481018290526024016104aa565b60405163177e802f60e01b81526001600160a01b0383166004820152602481018290526044016104aa565b610f48838361102d565b6105716000848484610b4a565b6060610f6082610883565b506000610f7860408051602081019091526000815290565b90506000815111610f985760405180602001604052806000815250610fc3565b80610fa284611092565b604051602001610fb3929190611673565b6040516020818303038152906040525b9392505050565b60006001600160a01b03831615801590610d7c5750826001600160a01b0316846001600160a01b0316148061100457506110048484610764565b80610d7c5750506000908152600460205260409020546001600160a01b03908116911614919050565b6001600160a01b03821661105757604051633250574960e11b8152600060048201526024016104aa565b6000611065838360006108c9565b90506001600160a01b03811615610571576040516339e3563760e11b8152600060048201526024016104aa565b6060600061109f83611125565b600101905060008167ffffffffffffffff8111156110bf576110bf611385565b6040519080825280601f01601f1916602001820160405280156110e9576020820181803683370190505b5090508181016020015b600019016f181899199a1a9b1b9c1cb0b131b232b360811b600a86061a8153600a85049450846110f357509392505050565b60008072184f03e93ff9f4daa797ed6e38ed64bf6a1f0160401b83106111645772184f03e93ff9f4daa797ed6e38ed64bf6a1f0160401b830492506040015b6d04ee2d6d415b85acef81000000008310611190576d04ee2d6d415b85acef8100000000830492506020015b662386f26fc1000083106111ae57662386f26fc10000830492506010015b6305f5e10083106111c6576305f5e100830492506008015b61271083106111da57612710830492506004015b606483106111ec576064830492506002015b600a83106103b45760010192915050565b6001600160e01b03198116811461085b57600080fd5b60006020828403121561122557600080fd5b8135610fc3816111fd565b60005b8381101561124b578181015183820152602001611233565b50506000910152565b6000815180845261126c816020860160208601611230565b601f01601f19169290920160200192915050565b602081526000610fc36020830184611254565b6000602082840312156112a557600080fd5b5035919050565b80356001600160a01b03811681146112c357600080fd5b919050565b600080604083850312156112db57600080fd5b6112e4836112ac565b946020939093013593505050565b60008060006060848603121561130757600080fd5b611310846112ac565b925061131e602085016112ac565b9150604084013590509250925092565b60006020828403121561134057600080fd5b610fc3826112ac565b6000806040838503121561135c57600080fd5b611365836112ac565b91506020830135801515811461137a57600080fd5b809150509250929050565b634e487b7160e01b600052604160045260246000fd5b600080600080608085870312156113b157600080fd5b6113ba856112ac565b93506113c8602086016112ac565b925060408501359150606085013567ffffffffffffffff808211156113ec57600080fd5b818701915087601f83011261140057600080fd5b81358181111561141257611412611385565b604051601f8201601f19908116603f0116810190838211818310171561143a5761143a611385565b816040528281528a602084870101111561145357600080fd5b82602086016020830137600060208483010152809550505050505092959194509250565b6000806040838503121561148a57600080fd5b611493836112ac565b91506114a1602084016112ac565b90509250929050565b600181811c908216806114be57607f821691505b6020821081036114de57634e487b7160e01b600052602260045260246000fd5b50919050565b60006001820161150457634e487b7160e01b600052601160045260246000fd5b5060010190565b601f82111561057157600081815260208120601f850160051c810160208610156115325750805b601f850160051c820191505b818110156115515782815560010161153e565b505050505050565b815167ffffffffffffffff81111561157357611573611385565b6115878161158184546114aa565b8461150b565b602080601f8311600181146115bc57600084156115a45750858301515b600019600386901b1c1916600185901b178555611551565b600085815260208120601f198616915b828110156115eb578886015182559484019460019091019084016115cc565b50858210156116095787850151600019600388901b60f8161c191681555b5050505050600190811b01905550565b6001600160a01b038581168252841660208201526040810183905260806060820181905260009061164c90830184611254565b9695505050505050565b60006020828403121561166857600080fd5b8151610fc3816111fd565b60008351611685818460208801611230565b835190830190611699818360208801611230565b0194935050505056fea2646970667358221220451418778d4f8dd8d3fe4c9c22ae5324b0ecbd41c5f7c31a9fd1276f67a0af8b64736f6c63430008140033a2646970667358221220c8a92b7b5160f9e924250cccc04be613d361f65e17e38b7839051f5055bac2ac64736f6c63430008140033",
    "linkReferences": {}
  },
  "methodIdentifiers": {
    "addNewFeed(uint8,string,uint256,uint80)": "30d9265a",
    "count()": "06661abd",
    "createModule(string,string,string,uint256)": "b07cb02e",
    "feeds(uint256)": "4a5479f3",
    "getModules()": "b2494df3",
    "modules(uint256)": "81b2248a"
  },
  "id": 16
}