{
  "abi": [
    {
      "inputs": [],
      "stateMutability": "nonpayable",
      "type": "constructor"
    },
    {
      "inputs": [],
      "name": "decrement",
      "outputs": [],
      "stateMutability": "nonpayable",
      "type": "function"
    },
    {
      "inputs": [],
      "name": "getCount",
      "outputs": [
        {
          "internalType": "uint256",
          "name": "",
          "type": "uint256"
        }
      ],
      "stateMutability": "view",
      "type": "function"
    },
    {
      "inputs": [],
      "name": "increment",
      "outputs": [],
      "stateMutability": "nonpayable",
      "type": "function"
    }
  ],
  "bytecode": {
    "object": "0x608060405234801561001057600080fd5b506000805560fd806100236000396000f3fe6080604052348015600f57600080fd5b5060043610603c5760003560e01c80632baeceb7146041578063a87d942c146049578063d09de08a14605e575b600080fd5b60476064565b005b60005460405190815260200160405180910390f35b6047607b565b60016000808282546074919060a1565b9091555050565b60026000808282546074919060b7565b634e487b7160e01b600052601160045260246000fd5b8181038181111560b15760b1608b565b92915050565b8082018082111560b15760b1608b56fea26469706673582212206229d4c452792a550312cb1758b484ccc5cf3b1582c919ebc467ccb7f1e7d60f64736f6c63430008140033",
    "linkReferences": {}
  },
  "methodIdentifiers": {
    "decrement()": "2baeceb7",
    "getCount()": "a87d942c",
    "increment()": "d09de08a"
  },
  "id": 0
}