{
  "abi": [
    {
      "inputs": [
        {
          "internalType": "address",
          "name": "initialOwner",
          "type": "address"
        },
        {
          "internalType": "string",
          "name": "_name",
          "type": "string"
        },
        {
          "internalType": "string",
          "name": "_symbol",
          "type": "string"
        },
        {
          "internalType": "string",
          "name": "_uri",
          "type": "string"
        },
        {
          "internalType": "uint256",
          "name": "_price",
          "type": "uint256"
        }
      ],
      "stateMutability": "nonpayable",
      "type": "constructor"
    },
    {
      "inputs": [
        {
          "internalType": "address",
          "name": "sender",
          "type": "address"
        },
        {
          "internalType": "uint256",
          "name": "tokenId",
          "type": "uint256"
        },
        {
          "internalType": "address",
          "name": "owner",
          "type": "address"
        }
      ],
      "name": "ERC721IncorrectOwner",
      "type": "error"
    },
    {
      "inputs": [
        {
          "internalType": "address",
          "name": "operator",
          "type": "address"
        },
        {
          "internalType": "uint256",
          "name": "tokenId",
          "type": "uint256"
        }
      ],
      "name": "ERC721InsufficientApproval",
      "type": "error"
    },
    {
      "inputs": [
        {
          "internalType": "address",
          "name": "approver",
          "type": "address"
        }
      ],
      "name": "ERC721InvalidApprover",
      "type": "error"
    },
    {
      "inputs": [
        {
          "internalType": "address",
          "name": "operator",
          "type": "address"
        }
      ],
      "name": "ERC721InvalidOperator",
      "type": "error"
    },
    {
      "inputs": [
        {
          "internalType": "address",
          "name": "owner",
          "type": "address"
        }
      ],
      "name": "ERC721InvalidOwner",
      "type": "error"
    },
    {
      "inputs": [
        {
          "internalType": "address",
          "name": "receiver",
          "type": "address"
        }
      ],
      "name": "ERC721InvalidReceiver",
      "type": "error"
    },
    {
      "inputs": [
        {
          "internalType": "address",
          "name": "sender",
          "type": "address"
        }
      ],
      "name": "ERC721InvalidSender",
      "type": "error"
    },
    {
      "inputs": [
        {
          "internalType": "uint256",
          "name": "tokenId",
          "type": "uint256"
        }
      ],
      "name": "ERC721NonexistentToken",
      "type": "error"
    },
    {
      "inputs": [
        {
          "internalType": "address",
          "name": "owner",
          "type": "address"
        }
      ],
      "name": "OwnableInvalidOwner",
      "type": "error"
    },
    {
      "inputs": [
        {
          "internalType": "address",
          "name": "account",
          "type": "address"
        }
      ],
      "name": "OwnableUnauthorizedAccount",
      "type": "error"
    },
    {
      "anonymous": false,
      "inputs": [
        {
          "indexed": true,
          "internalType": "address",
          "name": "owner",
          "type": "address"
        },
        {
          "indexed": true,
          "internalType": "address",
          "name": "approved",
          "type": "address"
        },
        {
          "indexed": true,
          "internalType": "uint256",
          "name": "tokenId",
          "type": "uint256"
        }
      ],
      "name": "Approval",
      "type": "event"
    },
    {
      "anonymous": false,
      "inputs": [
        {
          "indexed": true,
          "internalType": "address",
          "name": "owner",
          "type": "address"
        },
        {
          "indexed": true,
          "internalType": "address",
          "name": "operator",
          "type": "address"
        },
        {
          "indexed": false,
          "internalType": "bool",
          "name": "approved",
          "type": "bool"
        }
      ],
      "name": "ApprovalForAll",
      "type": "event"
    },
    {
      "anonymous": false,
      "inputs": [
        {
          "indexed": false,
          "internalType": "uint256",
          "name": "_fromTokenId",
          "type": "uint256"
        },
        {
          "indexed": false,
          "internalType": "uint256",
          "name": "_toTokenId",
          "type": "uint256"
        }
      ],
      "name": "BatchMetadataUpdate",
      "type": "event"
    },
    {
      "anonymous": false,
      "inputs": [
        {
          "indexed": false,
          "internalType": "uint256",
          "name": "_tokenId",
          "type": "uint256"
        }
      ],
      "name": "MetadataUpdate",
      "type": "event"
    },
    {
      "anonymous": false,
      "inputs": [
        {
          "indexed": true,
          "internalType": "address",
          "name": "previousOwner",
          "type": "address"
        },
        {
          "indexed": true,
          "internalType": "address",
          "name": "newOwner",
          "type": "address"
        }
      ],
      "name": "OwnershipTransferred",
      "type": "event"
    },
    {
      "anonymous": false,
      "inputs": [
        {
          "indexed": true,
          "internalType": "address",
          "name": "from",
          "type": "address"
        },
        {
          "indexed": true,
          "internalType": "address",
          "name": "to",
          "type": "address"
        },
        {
          "indexed": true,
          "internalType": "uint256",
          "name": "tokenId",
          "type": "uint256"
        }
      ],
      "name": "Transfer",
      "type": "event"
    },
    {
      "inputs": [
        {
          "internalType": "address",
          "name": "to",
          "type": "address"
        },
        {
          "internalType": "uint256",
          "name": "tokenId",
          "type": "uint256"
        }
      ],
      "name": "approve",
      "outputs": [],
      "stateMutability": "nonpayable",
      "type": "function"
    },
    {
      "inputs": [
        {
          "internalType": "address",
          "name": "owner",
          "type": "address"
        }
      ],
      "name": "balanceOf",
      "outputs": [
        {
          "internalType": "uint256",
          "name": "",
          "type": "uint256"
        }
      ],
      "stateMutability": "view",
      "type": "function"
    },
    {
      "inputs": [
        {
          "internalType": "uint256",
          "name": "tokenId",
          "type": "uint256"
        }
      ],
      "name": "getApproved",
      "outputs": [
        {
          "internalType": "address",
          "name": "",
          "type": "address"
        }
      ],
      "stateMutability": "view",
      "type": "function"
    },
    {
      "inputs": [
        {
          "internalType": "address",
          "name": "owner",
          "type": "address"
        },
        {
          "internalType": "address",
          "name": "operator",
          "type": "address"
        }
      ],
      "name": "isApprovedForAll",
      "outputs": [
        {
          "internalType": "bool",
          "name": "",
          "type": "bool"
        }
      ],
      "stateMutability": "view",
      "type": "function"
    },
    {
      "inputs": [],
      "name": "name",
      "outputs": [
        {
          "internalType": "string",
          "name": "",
          "type": "string"
        }
      ],
      "stateMutability": "view",
      "type": "function"
    },
    {
      "inputs": [],
      "name": "owner",
      "outputs": [
        {
          "internalType": "address",
          "name": "",
          "type": "address"
        }
      ],
      "stateMutability": "view",
      "type": "function"
    },
    {
      "inputs": [
        {
          "internalType": "uint256",
          "name": "tokenId",
          "type": "uint256"
        }
      ],
      "name": "ownerOf",
      "outputs": [
        {
          "internalType": "address",
          "name": "",
          "type": "address"
        }
      ],
      "stateMutability": "view",
      "type": "function"
    },
    {
      "inputs": [],
      "name": "price",
      "outputs": [
        {
          "internalType": "uint256",
          "name": "",
          "type": "uint256"
        }
      ],
      "stateMutability": "view",
      "type": "function"
    },
    {
      "inputs": [],
      "name": "renounceOwnership",
      "outputs": [],
      "stateMutability": "nonpayable",
      "type": "function"
    },
    {
      "inputs": [
        {
          "internalType": "address",
          "name": "_to",
          "type": "address"
        },
        {
          "internalType": "uint256",
          "name": "_amount",
          "type": "uint256"
        }
      ],
      "name": "safeMint",
      "outputs": [],
      "stateMutability": "payable",
      "type": "function"
    },
    {
      "inputs": [
        {
          "internalType": "address",
          "name": "from",
          "type": "address"
        },
        {
          "internalType": "address",
          "name": "to",
          "type": "address"
        },
        {
          "internalType": "uint256",
          "name": "tokenId",
          "type": "uint256"
        }
      ],
      "name": "safeTransferFrom",
      "outputs": [],
      "stateMutability": "nonpayable",
      "type": "function"
    },
    {
      "inputs": [
        {
          "internalType": "address",
          "name": "from",
          "type": "address"
        },
        {
          "internalType": "address",
          "name": "to",
          "type": "address"
        },
        {
          "internalType": "uint256",
          "name": "tokenId",
          "type": "uint256"
        },
        {
          "internalType": "bytes",
          "name": "data",
          "type": "bytes"
        }
      ],
      "name": "safeTransferFrom",
      "outputs": [],
      "stateMutability": "nonpayable",
      "type": "function"
    },
    {
      "inputs": [
        {
          "internalType": "address",
          "name": "operator",
          "type": "address"
        },
        {
          "internalType": "bool",
          "name": "approved",
          "type": "bool"
        }
      ],
      "name": "setApprovalForAll",
      "outputs": [],
      "stateMutability": "nonpayable",
      "type": "function"
    },
    {
      "inputs": [
        {
          "internalType": "bytes4",
          "name": "interfaceId",
          "type": "bytes4"
        }
      ],
      "name": "supportsInterface",
      "outputs": [
        {
          "internalType": "bool",
          "name": "",
          "type": "bool"
        }
      ],
      "stateMutability": "view",
      "type": "function"
    },
    {
      "inputs": [],
      "name": "symbol",
      "outputs": [
        {
          "internalType": "string",
          "name": "",
          "type": "string"
        }
      ],
      "stateMutability": "view",
      "type": "function"
    },
    {
      "inputs": [
        {
          "internalType": "uint256",
          "name": "tokenId",
          "type": "uint256"
        }
      ],
      "name": "tokenURI",
      "outputs": [
        {
          "internalType": "string",
          "name": "",
          "type": "string"
        }
      ],
      "stateMutability": "view",
      "type": "function"
    },
    {
      "inputs": [
        {
          "internalType": "address",
          "name": "from",
          "type": "address"
        },
        {
          "internalType": "address",
          "name": "to",
          "type": "address"
        },
        {
          "internalType": "uint256",
          "name": "tokenId",
          "type": "uint256"
        }
      ],
      "name": "transferFrom",
      "outputs": [],
      "stateMutability": "nonpayable",
      "type": "function"
    },
    {
      "inputs": [
        {
          "internalType": "address",
          "name": "newOwner",
          "type": "address"
        }
      ],
      "name": "transferOwnership",
      "outputs": [],
      "stateMutability": "nonpayable",
      "type": "function"
    },
    {
      "inputs": [],
      "name": "uri",
      "outputs": [
        {
          "internalType": "string",
          "name": "",
          "type": "string"
        }
      ],
      "stateMutability": "view",
      "type": "function"
    },
    {
      "inputs": [
        {
          "internalType": "uint256",
          "name": "_amount",
          "type": "uint256"
        }
      ],
      "name": "withdraw",
      "outputs": [],
      "stateMutability": "nonpayable",
      "type": "function"
    }
  ],
  "bytecode": {
    "object": "0x60806040523480156200001157600080fd5b5060405162001ac538038062001ac58339810160408190526200003491620001c6565b848484600062000045838262000311565b50600162000054828262000311565b5050506001600160a01b0381166200008657604051631e4fbdf760e01b81526000600482015260240160405180910390fd5b6200009181620000af565b506009620000a0838262000311565b50600a5550620003dd92505050565b600780546001600160a01b038381166001600160a01b0319831681179093556040519116919082907f8be0079c531659141344cd1fd0a4f28419497f9722a3daafe3b4186f6b6457e090600090a35050565b634e487b7160e01b600052604160045260246000fd5b600082601f8301126200012957600080fd5b81516001600160401b038082111562000146576200014662000101565b604051601f8301601f19908116603f0116810190828211818310171562000171576200017162000101565b816040528381526020925086838588010111156200018e57600080fd5b600091505b83821015620001b2578582018301518183018401529082019062000193565b600093810190920192909252949350505050565b600080600080600060a08688031215620001df57600080fd5b85516001600160a01b0381168114620001f757600080fd5b60208701519095506001600160401b03808211156200021557600080fd5b6200022389838a0162000117565b955060408801519150808211156200023a57600080fd5b6200024889838a0162000117565b945060608801519150808211156200025f57600080fd5b506200026e8882890162000117565b925050608086015190509295509295909350565b600181811c908216806200029757607f821691505b602082108103620002b857634e487b7160e01b600052602260045260246000fd5b50919050565b601f8211156200030c57600081815260208120601f850160051c81016020861015620002e75750805b601f850160051c820191505b818110156200030857828155600101620002f3565b5050505b505050565b81516001600160401b038111156200032d576200032d62000101565b62000345816200033e845462000282565b84620002be565b602080601f8311600181146200037d5760008415620003645750858301515b600019600386901b1c1916600185901b17855562000308565b600085815260208120601f198616915b82811015620003ae578886015182559484019460019091019084016200038d565b5085821015620003cd5787850151600019600388901b60f8161c191681555b5050505050600190811b01905550565b6116d880620003ed6000396000f3fe60806040526004361061011f5760003560e01c80638da5cb5b116100a0578063b88d4fde11610064578063b88d4fde14610314578063c87b56dd14610334578063e985e9c514610354578063eac989f814610374578063f2fde38b1461038957600080fd5b80638da5cb5b1461029857806395d89b41146102b6578063a035b1fe146102cb578063a1448194146102e1578063a22cb465146102f457600080fd5b80632e1a7d4d116100e75780632e1a7d4d146101f557806342842e0e146102155780636352211e1461023557806370a0823114610255578063715018a61461028357600080fd5b806301ffc9a71461012457806306fdde0314610159578063081812fc1461017b578063095ea7b3146101b357806323b872dd146101d5575b600080fd5b34801561013057600080fd5b5061014461013f366004611213565b6103a9565b60405190151581526020015b60405180910390f35b34801561016557600080fd5b5061016e6103ba565b6040516101509190611280565b34801561018757600080fd5b5061019b610196366004611293565b61044c565b6040516001600160a01b039091168152602001610150565b3480156101bf57600080fd5b506101d36101ce3660046112c8565b610475565b005b3480156101e157600080fd5b506101d36101f03660046112f2565b610484565b34801561020157600080fd5b506101d3610210366004611293565b610514565b34801561022157600080fd5b506101d36102303660046112f2565b610556565b34801561024157600080fd5b5061019b610250366004611293565b610576565b34801561026157600080fd5b5061027561027036600461132e565b610581565b604051908152602001610150565b34801561028f57600080fd5b506101d36105c9565b3480156102a457600080fd5b506007546001600160a01b031661019b565b3480156102c257600080fd5b5061016e6105dd565b3480156102d757600080fd5b50610275600a5481565b6101d36102ef3660046112c8565b6105ec565b34801561030057600080fd5b506101d361030f366004611349565b610737565b34801561032057600080fd5b506101d361032f36600461139b565b610742565b34801561034057600080fd5b5061016e61034f366004611293565b610759565b34801561036057600080fd5b5061014461036f366004611477565b610764565b34801561038057600080fd5b5061016e610792565b34801561039557600080fd5b506101d36103a436600461132e565b610820565b60006103b48261085e565b92915050565b6060600080546103c9906114aa565b80601f01602080910402602001604051908101604052809291908181526020018280546103f5906114aa565b80156104425780601f1061041757610100808354040283529160200191610442565b820191906000526020600020905b81548152906001019060200180831161042557829003601f168201915b5050505050905090565b600061045782610883565b506000828152600460205260409020546001600160a01b03166103b4565b6104808282336108bc565b5050565b6001600160a01b0382166104b357604051633250574960e11b8152600060048201526024015b60405180910390fd5b60006104c08383336108c9565b9050836001600160a01b0316816001600160a01b03161461050e576040516364283d7b60e01b81526001600160a01b03808616600483015260248201849052821660448201526064016104aa565b50505050565b61051c6109c2565b6007546040516001600160a01b039091169082156108fc029083906000818181858888f19350505050158015610480573d6000803e3d6000fd5b61057183838360405180602001604052806000815250610742565b505050565b60006103b482610883565b60006001600160a01b0382166105ad576040516322718ad960e21b8152600060048201526024016104aa565b506001600160a01b031660009081526003602052604090205490565b6105d16109c2565b6105db60006109ef565b565b6060600180546103c9906114aa565b8034146106315760405162461bcd60e51b81526020600482015260136024820152720acc2d8eacae640c8de40dcdee840dac2e8c6d606b1b60448201526064016104aa565b600a5481146106825760405162461bcd60e51b815260206004820152601960248201527f56616c75657320646f206e6f74206d617463682070726963650000000000000060448201526064016104aa565b6008805460009182610693836114e4565b9190505590506106a38382610a41565b61057181600980546106b4906114aa565b80601f01602080910402602001604051908101604052809291908181526020018280546106e0906114aa565b801561072d5780601f106107025761010080835404028352916020019161072d565b820191906000526020600020905b81548152906001019060200180831161071057829003601f168201915b5050505050610a5b565b610480338383610aab565b61074d848484610484565b61050e84848484610b4a565b60606103b482610c73565b6001600160a01b03918216600090815260056020908152604080832093909416825291909152205460ff1690565b6009805461079f906114aa565b80601f01602080910402602001604051908101604052809291908181526020018280546107cb906114aa565b80156108185780601f106107ed57610100808354040283529160200191610818565b820191906000526020600020905b8154815290600101906020018083116107fb57829003601f168201915b505050505081565b6108286109c2565b6001600160a01b03811661085257604051631e4fbdf760e01b8152600060048201526024016104aa565b61085b816109ef565b50565b60006001600160e01b03198216632483248360e11b14806103b457506103b482610d84565b6000818152600260205260408120546001600160a01b0316806103b457604051637e27328960e01b8152600481018490526024016104aa565b6105718383836001610dd4565b6000828152600260205260408120546001600160a01b03908116908316156108f6576108f6818486610eda565b6001600160a01b0381161561093457610913600085600080610dd4565b6001600160a01b038116600090815260036020526040902080546000190190555b6001600160a01b03851615610963576001600160a01b0385166000908152600360205260409020805460010190555b60008481526002602052604080822080546001600160a01b0319166001600160a01b0389811691821790925591518793918516917fddf252ad1be2c89b69c2b068fc378daa952ba7f163c4a11628f55a4df523b3ef91a4949350505050565b6007546001600160a01b031633146105db5760405163118cdaa760e01b81523360048201526024016104aa565b600780546001600160a01b038381166001600160a01b0319831681179093556040519116919082907f8be0079c531659141344cd1fd0a4f28419497f9722a3daafe3b4186f6b6457e090600090a35050565b610480828260405180602001604052806000815250610f3e565b6000828152600660205260409020610a738282611559565b506040518281527ff8e1a15aba9398e019f0b49df1a4fde98ee17ae345cb5f6b5e2c27f5033e8ce79060200160405180910390a15050565b6001600160a01b038216610add57604051630b61174360e31b81526001600160a01b03831660048201526024016104aa565b6001600160a01b03838116600081815260056020908152604080832094871680845294825291829020805460ff191686151590811790915591519182527f17307eab39ab6107e8899845ad3d59bd9653f200f220920489ca2b5937696c31910160405180910390a3505050565b6001600160a01b0383163b1561050e57604051630a85bd0160e11b81526001600160a01b0384169063150b7a0290610b8c903390889087908790600401611619565b6020604051808303816000875af1925050508015610bc7575060408051601f3d908101601f19168201909252610bc491810190611656565b60015b610c30573d808015610bf5576040519150601f19603f3d011682016040523d82523d6000602084013e610bfa565b606091505b508051600003610c2857604051633250574960e11b81526001600160a01b03851660048201526024016104aa565b805181602001fd5b6001600160e01b03198116630a85bd0160e11b14610c6c57604051633250574960e11b81526001600160a01b03851660048201526024016104aa565b5050505050565b6060610c7e82610883565b5060008281526006602052604081208054610c98906114aa565b80601f0160208091040260200160405190810160405280929190818152602001828054610cc4906114aa565b8015610d115780601f10610ce657610100808354040283529160200191610d11565b820191906000526020600020905b815481529060010190602001808311610cf457829003601f168201915b505050505090506000610d2f60408051602081019091526000815290565b90508051600003610d41575092915050565b815115610d73578082604051602001610d5b929190611673565b60405160208183030381529060405292505050919050565b610d7c84610f55565b949350505050565b60006001600160e01b031982166380ac58cd60e01b1480610db557506001600160e01b03198216635b5e139f60e01b145b806103b457506301ffc9a760e01b6001600160e01b03198316146103b4565b8080610de857506001600160a01b03821615155b15610eaa576000610df884610883565b90506001600160a01b03831615801590610e245750826001600160a01b0316816001600160a01b031614155b8015610e375750610e358184610764565b155b15610e605760405163a9fbf51f60e01b81526001600160a01b03841660048201526024016104aa565b8115610ea85783856001600160a01b0316826001600160a01b03167f8c5be1e5ebec7d5bd14f71427d1e84f3dd0314c0f7b2291e5b200ac8c7c3b92560405160405180910390a45b505b5050600090815260046020526040902080546001600160a01b0319166001600160a01b0392909216919091179055565b610ee5838383610fca565b610571576001600160a01b038316610f1357604051637e27328960e01b8152600481018290526024016104aa565b60405163177e802f60e01b81526001600160a01b0383166004820152602481018290526044016104aa565b610f48838361102d565b6105716000848484610b4a565b6060610f6082610883565b506000610f7860408051602081019091526000815290565b90506000815111610f985760405180602001604052806000815250610fc3565b80610fa284611092565b604051602001610fb3929190611673565b6040516020818303038152906040525b9392505050565b60006001600160a01b03831615801590610d7c5750826001600160a01b0316846001600160a01b0316148061100457506110048484610764565b80610d7c5750506000908152600460205260409020546001600160a01b03908116911614919050565b6001600160a01b03821661105757604051633250574960e11b8152600060048201526024016104aa565b6000611065838360006108c9565b90506001600160a01b03811615610571576040516339e3563760e11b8152600060048201526024016104aa565b6060600061109f83611125565b600101905060008167ffffffffffffffff8111156110bf576110bf611385565b6040519080825280601f01601f1916602001820160405280156110e9576020820181803683370190505b5090508181016020015b600019016f181899199a1a9b1b9c1cb0b131b232b360811b600a86061a8153600a85049450846110f357509392505050565b60008072184f03e93ff9f4daa797ed6e38ed64bf6a1f0160401b83106111645772184f03e93ff9f4daa797ed6e38ed64bf6a1f0160401b830492506040015b6d04ee2d6d415b85acef81000000008310611190576d04ee2d6d415b85acef8100000000830492506020015b662386f26fc1000083106111ae57662386f26fc10000830492506010015b6305f5e10083106111c6576305f5e100830492506008015b61271083106111da57612710830492506004015b606483106111ec576064830492506002015b600a83106103b45760010192915050565b6001600160e01b03198116811461085b57600080fd5b60006020828403121561122557600080fd5b8135610fc3816111fd565b60005b8381101561124b578181015183820152602001611233565b50506000910152565b6000815180845261126c816020860160208601611230565b601f01601f19169290920160200192915050565b602081526000610fc36020830184611254565b6000602082840312156112a557600080fd5b5035919050565b80356001600160a01b03811681146112c357600080fd5b919050565b600080604083850312156112db57600080fd5b6112e4836112ac565b946020939093013593505050565b60008060006060848603121561130757600080fd5b611310846112ac565b925061131e602085016112ac565b9150604084013590509250925092565b60006020828403121561134057600080fd5b610fc3826112ac565b6000806040838503121561135c57600080fd5b611365836112ac565b91506020830135801515811461137a57600080fd5b809150509250929050565b634e487b7160e01b600052604160045260246000fd5b600080600080608085870312156113b157600080fd5b6113ba856112ac565b93506113c8602086016112ac565b925060408501359150606085013567ffffffffffffffff808211156113ec57600080fd5b818701915087601f83011261140057600080fd5b81358181111561141257611412611385565b604051601f8201601f19908116603f0116810190838211818310171561143a5761143a611385565b816040528281528a602084870101111561145357600080fd5b82602086016020830137600060208483010152809550505050505092959194509250565b6000806040838503121561148a57600080fd5b611493836112ac565b91506114a1602084016112ac565b90509250929050565b600181811c908216806114be57607f821691505b6020821081036114de57634e487b7160e01b600052602260045260246000fd5b50919050565b60006001820161150457634e487b7160e01b600052601160045260246000fd5b5060010190565b601f82111561057157600081815260208120601f850160051c810160208610156115325750805b601f850160051c820191505b818110156115515782815560010161153e565b505050505050565b815167ffffffffffffffff81111561157357611573611385565b6115878161158184546114aa565b8461150b565b602080601f8311600181146115bc57600084156115a45750858301515b600019600386901b1c1916600185901b178555611551565b600085815260208120601f198616915b828110156115eb578886015182559484019460019091019084016115cc565b50858210156116095787850151600019600388901b60f8161c191681555b5050505050600190811b01905550565b6001600160a01b038581168252841660208201526040810183905260806060820181905260009061164c90830184611254565b9695505050505050565b60006020828403121561166857600080fd5b8151610fc3816111fd565b60008351611685818460208801611230565b835190830190611699818360208801611230565b0194935050505056fea2646970667358221220451418778d4f8dd8d3fe4c9c22ae5324b0ecbd41c5f7c31a9fd1276f67a0af8b64736f6c63430008140033",
    "linkReferences": {}
  },
  "methodIdentifiers": {
    "approve(address,uint256)": "095ea7b3",
    "balanceOf(address)": "70a08231",
    "getApproved(uint256)": "081812fc",
    "isApprovedForAll(address,address)": "e985e9c5",
    "name()": "06fdde03",
    "owner()": "8da5cb5b",
    "ownerOf(uint256)": "6352211e",
    "price()": "a035b1fe",
    "renounceOwnership()": "715018a6",
    "safeMint(address,uint256)": "a1448194",
    "safeTransferFrom(address,address,uint256)": "42842e0e",
    "safeTransferFrom(address,address,uint256,bytes)": "b88d4fde",
    "setApprovalForAll(address,bool)": "a22cb465",
    "supportsInterface(bytes4)": "01ffc9a7",
    "symbol()": "95d89b41",
    "tokenURI(uint256)": "c87b56dd",
    "transferFrom(address,address,uint256)": "23b872dd",
    "transferOwnership(address)": "f2fde38b",
    "uri()": "eac989f8",
    "withdraw(uint256)": "2e1a7d4d"
  },
  "id": 18
}