{
  "abi": [
    {
      "inputs": [
        {
          "internalType": "address",
          "name": "_owner",
          "type": "address"
        },
        {
          "internalType": "uint256",
          "name": "_endtime",
          "type": "uint256"
        }
      ],
      "stateMutability": "nonpayable",
      "type": "constructor"
    },
    {
      "inputs": [],
      "name": "endtime",
      "outputs": [
        {
          "internalType": "uint256",
          "name": "",
          "type": "uint256"
        }
      ],
      "stateMutability": "view",
      "type": "function"
    },
    {
      "inputs": [
        {
          "internalType": "uint256",
          "name": "",
          "type": "uint256"
        },
        {
          "internalType": "uint256",
          "name": "",
          "type": "uint256"
        }
      ],
      "name": "options",
      "outputs": [
        {
          "internalType": "address",
          "name": "",
          "type": "address"
        }
      ],
      "stateMutability": "view",
      "type": "function"
    },
    {
      "inputs": [],
      "name": "owner",
      "outputs": [
        {
          "internalType": "address",
          "name": "",
          "type": "address"
        }
      ],
      "stateMutability": "view",
      "type": "function"
    },
    {
      "inputs": [
        {
          "internalType": "uint256",
          "name": "_option",
          "type": "uint256"
        }
      ],
      "name": "totalVote",
      "outputs": [
        {
          "internalType": "uint256",
          "name": "",
          "type": "uint256"
        }
      ],
      "stateMutability": "view",
      "type": "function"
    },
    {
      "inputs": [
        {
          "internalType": "uint256",
          "name": "_option",
          "type": "uint256"
        }
      ],
      "name": "vote",
      "outputs": [],
      "stateMutability": "nonpayable",
      "type": "function"
    },
    {
      "inputs": [
        {
          "internalType": "address",
          "name": "",
          "type": "address"
        }
      ],
      "name": "voters",
      "outputs": [
        {
          "internalType": "bool",
          "name": "",
          "type": "bool"
        }
      ],
      "stateMutability": "view",
      "type": "function"
    }
  ],
  "bytecode": {
    "object": "0x608060405234801561001057600080fd5b5060405161038438038061038483398101604081905261002f91610058565b600080546001600160a01b0319166001600160a01b039390931692909217909155600155610092565b6000806040838503121561006b57600080fd5b82516001600160a01b038116811461008257600080fd5b6020939093015192949293505050565b6102e3806100a16000396000f3fe608060405234801561001057600080fd5b50600436106100625760003560e01c80630121b93f146100675780632ca126f81461007c5780638da5cb5b14610098578063a3ec138d146100c3578063bd6d605c146100f6578063e2a75f3614610109575b600080fd5b61007a610075366004610242565b610129565b005b61008560015481565b6040519081526020015b60405180910390f35b6000546100ab906001600160a01b031681565b6040516001600160a01b03909116815260200161008f565b6100e66100d136600461025b565b60026020526000908152604090205460ff1681565b604051901515815260200161008f565b6100ab61010436600461028b565b61020a565b610085610117366004610242565b60009081526003602052604090205490565b600154421061016b5760405162461bcd60e51b81526020600482015260096024820152684f7665722074696d6560b81b60448201526064015b60405180910390fd5b3360009081526002602052604090205460ff16156101bf5760405162461bcd60e51b8152602060048201526011602482015270165bdd48185b1c9958591e481d9bdd1959607a1b6044820152606401610162565b60009081526003602090815260408083208054600181810183559185528385200180546001600160a01b0319163390811790915584526002909252909120805460ff19169091179055565b6003602052816000526040600020818154811061022657600080fd5b6000918252602090912001546001600160a01b03169150829050565b60006020828403121561025457600080fd5b5035919050565b60006020828403121561026d57600080fd5b81356001600160a01b038116811461028457600080fd5b9392505050565b6000806040838503121561029e57600080fd5b5050803592602090910135915056fea264697066735822122051a562663a6e772fab377bd24af6212c8b85a6cb68be74fff40d3dea2c3706e864736f6c63430008140033",
    "linkReferences": {}
  },
  "methodIdentifiers": {
    "endtime()": "2ca126f8",
    "options(uint256,uint256)": "bd6d605c",
    "owner()": "8da5cb5b",
    "totalVote(uint256)": "e2a75f36",
    "vote(uint256)": "0121b93f",
    "voters(address)": "a3ec138d"
  },
  "id": 19
}